:100000000C94E0000C9418010C9418010C94180145
:100010000C9418010C9418010C9418010C941801FC
:100020000C9418010C9418010C94D2190C94A61A73
:100030000C94F4140C9418010C9418010C941801ED
:100040000C9418010C9418010C9418010C941801CC
:100050000C9418010C947B150C9418010C94180145
:100060000C9418010C9418010C9418010C941801AC
:100070000C9418010C9418010C9418010C9418019C
:100080000C9418010C9418010C9418010C9418018C
:100090000C9418010C9418010C9418010C9418017C
:1000A0000C9418010C9418010C94180101001E0303
:1000B00054007200610063006B00620061006C001C
:1000C0006C0020004E0061006E006F000000120303
:1000D00050006C006F006F007000790043006F00EB
:1000E00000000403090409023B00020100A03209D8
:1000F0000400000103010100092111010001224453
:100100000007058103080001090401000103000044
:100110000009211101000122490007058203200086
:100120000112010002000000084350A35401000125
:1001300002000105010902A10185020901A10005D2
:100140000919012908150025019508750181020585
:1001500001093009311581257F950275088106094D
:10016000381581257F950175088106050C0A38022E
:100170001581257F950175088106C0C00501090616
:10018000A101050719E029E715002501950875016A
:1001900081029501750881010507190029FF1500E5
:1001A00026FF009506750881000508190129051527
:1001B000002501950575019102950175039101C016
:1001C00011241FBECFEFDAE0DEBFCDBF04B603FEC1
:1001D00018C08091F3019091F401A091F501B091C4
:1001E000F6018730904BA740B04B59F41092F301C1
:1001F0001092F4011092F5011092F601E0E0F8E39C
:10020000099511E0A0E0B1E0E6EDFDE302C0059044
:100210000D92A033B107D9F721E0A0E3B1E001C00E
:100220001D92A33FB207E1F70E9485100C94AA1E0D
:100230000C940000ACE0B0E0E0E2F1E00C940B1EA6
:100240004F8358878B879C87172F80913A0188238B
:1002500009F46AC0062E000C770B880B990B0E94DC
:10026000F21C20E030E040E05EE30E947E1D209121
:1002700036013091370140913801509139010E9487
:100280004E1C4B015C01612F110F770B880B990BF2
:100290000E94F21C20E030E040E05EE30E947E1D00
:1002A0002091320130913301409134015091350158
:1002B0000E944E1C6B017C01C501B4010E94BA1C56
:1002C000062F6C87C701B6010E94BA1C162F6B87D8
:1002D000602F000F770B880B990B0E94F21C9B017B
:1002E000AC01C501B4010E944D1C609336017093AE
:1002F00037018093380190933901612F110F770BEB
:10030000880B990B0E94F21C9B01AC01C701B6013E
:100310000E944D1C6093320170933301809334012D
:100320009093350110E060E04F815885712F8B85E7
:100330009C850E944A0280E090E02C96ECE00C94B0
:10034000271E0F931F93CF93DF938C01EB010E9425
:100350001B03882339F101159EE7190741F5CD816B
:10036000CC2301F18091DA0190E0019665E070E024
:100370000E94EB1D8093DA016091DA017091DB013C
:100380008091DC019091DD010E94B50CE091DA01D1
:10039000F0E0EE0FFF1FE050FF4F808191810E943F
:1003A00054118C2FDF91CF911F910F91089501303F
:1003B0001E47C1F79D819923A9F380913A0121E05D
:1003C000822780933A01892FEDCFA0E1B0E0EBEED8
:1003D000F1E00C94131E80E1E7E1F1E0DE011196FB
:1003E00001900D928A95E1F7FE013196AE014F5EC4
:1003F0005F4F61E070E08191A82FA295AF70B0E0EF
:1004000091962C9191978F708B0102C0000F111F54
:100410008A95E2F7C801922F982B91969C93919719
:1004200092969C9192978095892392968C934E17E1
:100430005F0709F70E947B0D6096E4E00C942F1E85
:1004400081E08093DA016091DA017091DB018091A3
:10045000DC019091DD010E94B50C0E94C30C08954F
:100460000E94B00C6093DA017093DB018093DC0191
:100470009093DD01663010F00E942002E091DA01D5
:10048000F0E0EE0FFF1FE050FF4F808191810E944E
:1004900054110895ACE0B0E0E0E5F2E00C94111ED8
:1004A0004F835887E62E6987F72E7A878B879C873C
:1004B000182F092F0E94541520913B0130913C01C7
:1004C000821B930B8B3F910508F455C00E94541575
:1004D00020913D0130913E01821B930B873991059C
:1004E00020F01092410110924001809140019091C2
:1004F000410121E02E15CCF442E04F1504F120918A
:100500003F0121111CC0019690934101809340014D
:100510000E94541590933E0180933D0180913F01CC
:1005200091E0892780933F010AC02FEFE2163CF447
:1005300042E04F1524F020913F012111E4CF80913A
:100540004001909141010497B4F08091460191E0FF
:1005500089278093460110924101109240010E9428
:10056000541590933E0180933D010E945415909341
:100570003C0180933B0180914601811138C00E946B
:10058000001481FD34C00E94001480FD30C086E05C
:10059000FE013796DE01119601900D928A95E1F7E2
:1005A00029813A814B815C816D817E8180E090E080
:1005B0002C96E6E00C942D1E1092450110924401F9
:1005C00001E02739310554F01092430110924201A5
:1005D0001FEF19861A861B870C87D9CF2A363F4F03
:1005E000C4F7109243011092420111E0F2CF8091C2
:1005F0004401909145018E0D911DE7FC9A959093D1
:1006000045018093440120914201309143012F0D17
:10061000311DF7FC3A95309343012093420187390D
:10062000910554F68A369F4F64F610924501109258
:1006300044010FEFC6CF019731F48091460191E05C
:1006400089278093460181E00895642B682B29F463
:10065000ECEAF0E085919491089581E090E00895AE
:100660000E942503089581E008950E9433030895B0
:1006700081E0089508950E943A030895A6E0B0E04D
:10068000E4E4F3E00C94141E49835A839E83309172
:100690004C0189819A8131111AC03E81332399F02E
:1006A000222389F00E946A08182F682F89819A8175
:1006B0000E94540869817A81812F0E94090F269631
:1006C000E3E00C94301E0E945F08182FF3CF0E94C5
:1006D0006A0869817A81F1CFFC01262F408151811E
:1006E00062817381848195810E943E030895CF9336
:1006F000DF93EC0161E00E946C03BE010E943503B0
:10070000DF91CF910895CF93DF93EC0160E00E94D9
:100710006C03BE010E943B03DF91CF91089581E0FD
:1007200008950E948F030895CF93C82F0E94290730
:100730008C2F0E9491032FEF84E39CE02150804096
:100740009040E1F700C00000CF91089581E00E9441
:1007500094030E949F15089580E00E9494030E94D4
:10076000C31508950F931F93CF93DF938C0161E01E
:100770000E946C03EC01B8010E94A101811106C026
:1007800080E0DF91CF911F910F910895B801CE01C4
:100790000E94AA138823A1F3B801CE010E946A1215
:1007A000882371F3B801CE010E944012882341F3DF
:1007B000F8018581882361F0C330FCE7DF07E9F0A9
:1007C00058F4C115ECE7DE07A9F0C130DC47B9F0F9
:1007D000C8010E943803D5CFCB358CE7D807A9F0E4
:1007E000CC35ECE7DE0771F0CA35DC4789F70E94AB
:1007F000810CEECF0E94A603C3CF0E94890C0E94F9
:10080000AC03BECF0E94770CE3CF0E94850CE0CFF3
:100810000E94D6140E942A040E94021108950E9488
:100820002E040E94DB14089581E008950895CF936B
:10083000DF93D82F0E941404C82F882319F08D2F1E
:100840000E9416048C2FDF91CF91089508950E9485
:100850001704089580E00E94270408950E94F3136E
:100860000E9427040895CF930E94F313C82F80910C
:1008700047018C1779F0C09347010E94601560937F
:1008800048017093490180934A0190934B018C2F4A
:100890000E942704CF910895ADE0B0E0E2E5F4E0D6
:1008A0000C94151E488759876A877B878C879D879C
:1008B00091110E94B70B1F8286E0FE013896DE017F
:1008C000119601900D928A95E1F78D8181110DC0ED
:1008D00029813A814B815C816D817E818F810E946B
:1008E000010B2D96E2E00C94311ECE0101960E9480
:1008F00077038111EDCFF5CFFC012481213021F464
:10090000808191810E949C08089593E3980F933110
:1009100018F490E00E945A110895CF93C82F8823AD
:1009200099F08CEF8C0F813A88F48C2F0E9431144F
:10093000882329F08C2F0E9474140E94260C8C2F7F
:100940000E946C140E94260CCF91089580E28C0FB7
:10095000883048F4C77081E001C0880FCA95EAF773
:100960000E949A0BEFCF83E38C0F833168F761E02D
:100970008C2F0E948504E8CF8823F1F09CEF980F1C
:10098000913A28F40E9474140E94260C089590E273
:10099000980F983050F4877091E001C0990F8A95B4
:1009A000EAF7892F0E94A00BEFCF93E3980F9331C2
:1009B00018F460E00E94850408951F93CF93DF939D
:1009C000182FEB010E948D04209739F4812F0E948B
:1009D000BC04DF91CF911F9108958FE99FE00197AB
:1009E000F1F700C000002197EFCF70E060E089339D
:1009F00011F460E570E00E94DD040895882321F081
:100A00000E949A0B0E94260C0895882321F00E94D0
:100A1000A00B0E94260C0895B0E0A0E0E2E1F5E012
:100A20000C940E1E6C01D62FC72FFC011581068178
:100A300002950F700E94900BE82E8823F9F0E12EAA
:100A40001123E1F08C2F807F803461F080E28D0FE4
:100A5000883008F18C2F807E803221F4D230D8F09B
:100A60000023C9F08091DF0182FF15C082E00E945F
:100A70004B0C0E94900B91E0E82EE926BC2EB2941C
:100A80009FE0B922FBE0FB15B8F1EB2DF0E0E45557
:100A9000F14E0C94FF1DE12CF1CF0C2F0F70C07F95
:100AA00011F00295007F112399F0002359F080E2A4
:100AB0008D0F883010F0D11107C0802F0E949A0B43
:100AC0000E94260C8D2F5AC0802F0E94AA0BF8CFAF
:100AD0008D2F0E94BC04002379F080E28D0F8830B6
:100AE00010F0D11104C0802F0E94A00B03C0802FF2
:100AF0000E94B00B0E94260CEB2DE850FF0B3497A0
:100B000020F40E94F3130E942704EE2089F00E9433
:100B10008C0B80FD0DC0F60115820E94860B0E9491
:100B2000B207C6010E94FC060E94860B0E94C20703
:100B3000CDB7DEB7E9E00C942A1E2C2F2F70F22ED1
:100B4000C07FC03219F0F29480EFF822DD2341F02B
:100B5000D130D1F1112309F444C00023F1F0B2CF18
:100B60008091DF0182FD15C0112359F0FF2029F08B
:100B70008F2D0E949A0B0E94260C80E00E948D040B
:100B8000BBCF80E00E94BC04FF2009F4B5CF8F2DBD
:100B9000ABCF112369F0011104C08F2D0E94FE0418
:100BA000ABCF013009F0A8CF8F2D0E94CE0BA4CF80
:100BB0000111A2CF8F2D0E9405058F2D0E94DA0B07
:100BC0008F2D0E94BE0B98CF112321F0063008F024
:100BD00093CFE3CF053008F08FCF8F2D0E9405050E
:100BE0008BCF0023D1F3D93349F43FEF87EE93E065
:100BF000315080409040E1F700C000008D2F0E94EE
:100C0000BC047ACF612F8D2F0E94850475CF8C2F65
:100C10008370A1F5111170CF4D2F42954695477005
:100C2000440F440F2D2F2F7030E0042E02C0220FEE
:100C3000331F0A94E2F790E080E0D4FF09C08FE010
:100C400090E002C0880F991F4A95E2F78095909531
:100C5000C695C695C370822B932BC23049F058F4C9
:100C6000C13019F00E94820747CF0E94790744CF14
:100C70000E948B0741CF0E9476073ECF86951123B5
:100C800011F08C2F8170882309F436CF4D2F4295B7
:100C900046954770440F440F2D2F2F7030E0042EDF
:100CA00002C0220F331F0A94E2F790E080E0D4FFE5
:100CB00009C08FE090E002C0880F991F4A95E2F7C3
:100CC00080959095C695C695C370822B932BC230A4
:100CD00049F058F4C13019F00E94ED070DCF0E9481
:100CE000E4070ACF0E94F60707CF0E949A0704CFB5
:100CF000CF70112329F08C2F0E94B2078D2F4ECF79
:100D00008D2F0E9405058C2F0E94C207F5CED23F81
:100D100041F160F4D03FB9F0D13F81F0112309F4E3
:100D200043C00111CFCE8C2F8F711FC0D33F01F173
:100D3000D43FA1F78091DF0182FD24C08C2F8F71F9
:100D4000112311F312C0112341F0053008F0D4CE65
:100D50008C2F8F710E94D407CFCE063008F0CCCEF6
:100D6000F7CF8C2F8F711111CFCF0E94B207C4CE55
:100D7000112329F08C2F8F710E94A607BDCE0E94EF
:100D8000A107BACE112331F063E08C2F8F710E943E
:100D90002D0CB2CE81E00E944B0C023008F4ACCE98
:100DA00082E00E944B0CA8CE002359F0D93309F001
:100DB00025CFEFEFF7EE23E0E150F0402040E1F7E0
:100DC0001BCF8C2F8F71A0CF0F931F93CF93DF93E7
:100DD000EC01688179818D810E94A7088C010E94B5
:100DE000FF070E947507B801CE010E940C05DF9134
:100DF000CF911F910F910895CF93DF93EC018C81D8
:100E0000882399F0CE010E94B203811111C00E9483
:100E1000900B882351F08D81882339F08091DF0178
:100E200082FF03C082E00E944B0CDF91CF910895B6
:100E3000CE010E94E406CE010E948303F6CF0E94F9
:100E4000B70B0E94260C08950E947C140E941F0775
:100E500008950E94A70B0E942407089592959F7001
:100E6000963091F058F4925F9F70923058F4803F22
:100E700019F030F4883E30F481E008959A5FF4CFA1
:100E8000843FD1F380E00895883EB0F3813FD1F7ED
:100E9000F3CFFC012481222339F0808191810E94CB
:100EA0009C080E942E07089580E00895A6E0B0E017
:100EB000ECE5F7E00C94151E2696E2E00C94311E4A
:100EC000A7E0B0E0E6E6F7E00C94151E2796E2E016
:100ED0000C94311E08950E946A0708950E946B07C2
:100EE0009093540180935301089508950E946E07D2
:100EF00008952091530130915401822B932B0E942D
:100F00006E07089520915301309154018223932359
:100F10000E946E0708952091530130915401822759
:100F200093270E946E0708950E946A0708950E9401
:100F3000940708950E94970790935201809351015E
:100F4000089590E080E00E949A07089521E030E043
:100F5000A90102C0440F551F8A95E2F7CA010E94F9
:100F60009A07089521E030E002C0220F331F8A95CE
:100F7000E2F78091510190915201822B932B0E94B4
:100F80009A07089521E030E002C0220F331F8A95AE
:100F9000E2F7209530958091510190915201822382
:100FA00093230E949A07089521E030E002C0220FA7
:100FB000331F8A95E2F78091510190915201822767
:100FC00093270E949A070895209151013091520170
:100FD000822B932B0E949A07089520915101309102
:100FE0005201822393230E949A0708952091510170
:100FF00030915201822793270E949A0708950895FD
:10100000262F277091E001C0990F2A95EAF723E077
:10101000769567952A95E1F7660F771F660F771F1C
:10102000FA01E60FF71F50E040E0682F70E0819171
:10103000DF0111979B01042E02C0369527950A9473
:10104000E2F7217021952827292328272C934F5F29
:101050005F4F4430510559F70895A82FA77023E03A
:10106000969587952A95E1F7880F991F880F991F04
:10107000FB01E80FF91F50E040E080E0219130E0F3
:101080000A2E02C0369527950A94E2F7217033277D
:10109000042E01C0220F0A94EAF7822B4F5F5F4FA4
:1010A0004430510559F70895262F892B39F44DE422
:1010B00051E070E060E0822F0E9400080895892BC3
:1010C00039F46DE471E090E080E00E942D0808950D
:1010D00080E00895B0E0A0E0E0E7F8E00C940E1E98
:1010E0007C01009151011091520180915301909126
:1010F0005401082B192BCFE0D0E0CC24C394D12C81
:10110000BC2EC6010C2E02C0880F991F0A94E2F76C
:1011100080239123892B49F4219790F7B12C8B2DB3
:10112000CDB7DEB7E9E00C942A1EB7018C2F0E94E0
:10113000120F019789F3F3CFCF93DF93EC010E9455
:101140006A08BE010E94120FDF91CF9108951F938C
:10115000CF93DF93EB0190914C01992339F0CB01B0
:101160000E949C08DF91CF911F910895882369F018
:10117000CB010E946A08182F682FCE010E945408E4
:10118000BE01812F0E94120FEDCFCB010E945F089C
:10119000182FF6CF1F93CF93DF93C091550117E01F
:1011A000809156018C1304C0DF91CF911F91089557
:1011B000D0E01C9FF0011D9FF00D1124E95AFE4F55
:1011C00020813181428153816481758186810E94B1
:1011D00060072196C770E4CF20918F013091900174
:1011E000409191015091920160919301709194010D
:1011F000809195010E9460070895CF93DF938091BD
:101200009501807F09F04DC080919401882309F4F5
:1012100048C0E091550150915601C0919001D09184
:101220008F01609191017091920147E05E17C9F1C1
:101230008E2F90E0E49FF0011124E95AFE4F2481A3
:10124000222391F1489FF001499FF00D1124DF0105
:10125000A95ABE4F11962C9111972C1325C02C9191
:101260002D1322C015962C91159721111DC0129691
:101270002D913C91261B370B283C3105A8F4809119
:1012800095018F70806180939501E35AFE4F8081B4
:101290008F70806180838FE891E00E94FC060E943D
:1012A000CA08DF91CF910895FC013196E770BECF57
:1012B000482F209155019091560157E0291302C003
:1012C00080E0089530E0529FF001539FF00D11240B
:1012D000E95AFE4F8181681306C08081481303C01C
:1012E00085818111EECF2F5F3F4F2770E7CFA4E1BB
:1012F000B0E0EDE7F9E00C940B1E8C0186E0F801FC
:10130000DE011F9601900D928A95E1F7F801848124
:10131000E5809FE8A92E91E0B92E9091930191115B
:101320001FC08823D1F0EE20A9F0C8010E94490710
:10133000F82E882379F087E0F801D50101900D920D
:101340008A95E1F7C5010E947C040E94FD080E9475
:10135000EC085FC0C8010E94FC06FF24F39459C04A
:10136000C080D18082809380F0909401209191017F
:1013700030919201A401421B530BFF2009F4F9C0E4
:10138000483C510508F0A7C0882309F442C0909159
:10139000900180919501282F207F09F05CC09D115C
:1013A00016C090918F01C91212C0E1104EC08F700B
:1013B0008061809395010E94EC088FE891E00E9483
:1013C000FC0680919501F8018683F12C22C0E11082
:1013D0003CC06D2D8C2D0E9458096D2D8C2D0E94C6
:1013E0005809E82E8111F1CFCF86D88A8F85988948
:1013F0000E949C08292F22952F70243078F49F702A
:101400002230A8F09923B9F0F8019681907F99F4E1
:10141000FE2C8F2D6496ECE00C94271E2A5F2F7013
:10142000223068F0C8010E94FC06EF2CF1CF99230E
:1014300011F0882369F3805E883050F3F3CF803F4A
:1014400038F3815F833070F7E3CF8091950181603D
:1014500080939501BACF9D1113C090918F01C9124D
:101460000FC0E1100DC08683C8010E94FC0687E012
:10147000F801AFE8B1E001900D928A95E1F767CFEE
:10148000C8010E944907882309F464CFEE2009F4BB
:1014900061CF80919501803288F020918F01309149
:1014A0009001398728879B868A86909193019C8733
:1014B0001D868E87CE0108960E94FC0687E0F80103
:1014C000AFE8B1E001900D928A95E1F70E94FD0826
:1014D0000E94EC0842CF90919501292F207FA1F422
:1014E000682D9A8A898AA6017A899E2D0E945607BC
:1014F0008FE891E00E94FC0687E0F50111928A9541
:10150000E9F70E94EC0861CF882309F482CF80912B
:1015100090018D1110C080918F01C8120CC0E11094
:101520000AC09683C8010E94FC0687E0F50111926B
:101530008A95E9F76ECFC8010E944907882309F40C
:1015400009CFEE2009F406CF80919501803208F48E
:10155000B5CF20918F01309190013A8329839C82ED
:101560008B82909193019D831E828F83CE01019681
:10157000A3CF483C5105B8F5882309F4EECEFE2CE4
:10158000EE2009F4E7CE809190018D111EC080916C
:101590008F01C8121AC08091950180FD0DC0982F4F
:1015A000907F51F08683903F09F45ECF982F907F13
:1015B000905F8F70892B57CF87E0F801AFE8B1E0DB
:1015C00001900D928A95E1F724CFC8010E94490746
:1015D000811174CF80919501816080939501C8013C
:1015E0000E94FC0616CF682D9A8A898AA6017A89FC
:1015F0009E2D0E94560787E0F50111928A95E9F722
:10160000A6CEAEE0B0E0E7E0FBE00C94141E288725
:1016100039874A875B876C877D878E87CE010896DE
:101620000E9477098823B1F06C85662341F02885F4
:1016300039854A855B857D858E850E94600717E028
:10164000809155019091560189133DC02E96E3E09B
:101650000C94301E87E0FE013896DE011196019051
:101660000D928A95E1F78C85882349F320915601E4
:1016700030E0C901019687709927409155014817BC
:10168000190699F097E0929FD001939FB00D112415
:10169000A95ABE4FFE01319601900D929A95E1F73D
:1016A000809356010E94CA08CACF0E94290710924F
:1016B00056011092550187E0EFE8F1E0DF011D923D
:1016C0008A95E9F7BCCF819FC0011124895A9E4FAA
:1016D0000E947709882309F4B9CFE09155011E9F34
:1016E000F0011124E95AFE4F20813181428153815A
:1016F0006481758186810E9460078091550190E028
:10170000019687709927809355019ACF80919E0109
:10171000869586958695089580919E018770089597
:1017200090919E01977081E009F480E00895809186
:10173000AA0108959091AA01892B8093AA01089586
:1017400080959091AA0198239093AA0108951092F0
:10175000AA0108959091A901892B8093A901089568
:1017600080959091A90198239093A90108951092D2
:10177000A901089508950E94BA0B089590919F01C0
:10178000292F282331F08095892380939F010E947F
:10179000BB0B089508950E94CA0B08959091A00173
:1017A000292F2823281729F0982B9093A0010E9415
:1017B000CB0B08959091A001292F282331F080951B
:1017C00089238093A0010E94CB0B08958091A001F2
:1017D000882329F01092A00180E00E94CB0B08958D
:1017E0000F931F93CF93DF9300910A0110910B0188
:1017F000C091AA018091A901C82B8091A0018823E2
:1018000031F0C82B0E941C1481110E94E60BF801D4
:10181000C083C0910A01D0910B0148E050E066E915
:1018200071E0CE010E943C1E892B59F088E0FE0138
:10183000A6E9B1E001900D928A95E1F7CE010E94F0
:101840000314DF91CF911F910F9108950E94F00B27
:10185000089508950E94290C08959091DF0192FF48
:1018600011C098E0899F90011124622B60939E0122
:101870000E94B20780919E018695869586950E946A
:101880002A0C08950E94B207089510929E0180E0EC
:101890000E942A0C089590919E018095892380933F
:1018A0009E01282F277069F4891759F09091DF0164
:1018B00092FF07C08695869586950E94C2070E9472
:1018C000450C08959091DF0192FB222720F92817FB
:1018D00069F080FB92F99093DF018091DE01909195
:1018E000DF010E94AA0C82E00E944B0C08958091B7
:1018F000DF0182FB882780F991E089270E94620C32
:10190000089581E00E94620C089580E00E94620CBC
:1019100008956FEF7FEF90E080E00E94941E08959D
:1019200090E080E00E94601E21E0853E9E4F09F01D
:1019300020E0822F089582E090E00E94521E0895D8
:1019400083E090E00E94521E089584E090E00E949F
:10195000601E0895BC0184E090E00E94941E0895EA
:101960008FE090E00E945A1E0895AB01BC018FE009
:1019700090E00E94881E0895AB01BC0183E190E0D5
:101980000E94881E089560E070E0CB010E94BC0CAC
:101990000895A8E0B0E0EFECFCE00C94151E65EEB5
:1019A0007EEF90E080E00E94941E60E082E090E094
:1019B0000E94761E81E090E0909354018093530141
:1019C00061E083E090E00E94761E60E074E184E0D4
:1019D00090E00E94941E60E086E090E00E94761EF7
:1019E00060E087E090E00E94761E40E050E0BA019F
:1019F00088E090E00E94881E60E083E290E00E9410
:101A0000761E60E08CE090E00E94761E60E08DE043
:101A100090E00E94761E19821A821B821C821D820F
:101A20001E821F82188648E050E067E170E0CE0118
:101A300001960E94661E40E050E0BA018FE190E0FE
:101A40000E94881E0E9420022896E2E00C94311E1B
:101A50000E94C90C0895682F8EE090E00E94761EC7
:101A60000895A6E0B0E0E7E3FDE00C94131E0E94A9
:101A700054158C018091AB019091AC0180179107B6
:101A800081F019821A820E945415682F49815A8167
:101A9000792F80E090E00E944C041093AC010093F9
:101AA000AB012696E4E00C942F1E0E946015609313
:101AB000B6017093B7018093B8019093B901609318
:101AC000B2017093B3018093B4019093B50108956E
:101AD0000E9460156093B6017093B7018093B801BE
:101AE0009093B9016093AE017093AF018093B00100
:101AF0009093B10108950895089508950E947D0D71
:101B0000089588E090E10E949A100E947C0D0E9446
:101B1000E501089581E008950E948A0D08950E94CC
:101B20008A0D0895089508950E94920D0E94930DC4
:101B300008950E94900C811102C00E94280D0E94FD
:101B40009B0C8093BA010E94A50C9093DF018093B7
:101B5000DE010E94A00C90E00E9476078091510166
:101B6000909152010E94970708950E944B150E9480
:101B70002B100E94990D0E9426040E94AD100E9415
:101B80007E0D0895A6E0B0E0E8ECFDE00C94131E95
:101B90000E948C0D81110DC00E94310D0E94021116
:101BA00081110E94680D0E9433042696E4E00C9493
:101BB0002F1E0E9437101091AD0180E00E9412107C
:101BC000181751F38091BA0181FD0E9418100E94EC
:101BD0008F0D082F80E00E941210182F8091AD0108
:101BE000912F9827181303C00E94550DD7CF90FF4F
:101BF0000FC0002369F019821A820E945415682FC1
:101C000049815A81792F81E0912F91700E944C0473
:101C10001093AD01E9CF1F93CF93DF930E94170F6D
:101C2000EC01C11582E5D80708F03FC0C11590E569
:101C3000D90708F0C2C0C83ED105C0F4C03ED105E6
:101C400080F4C53AD10548F4C430D10550F4C13010
:101C5000D10539F0D0E0C0E004C0CD3CD105D0F3CF
:101C6000D065CE01DF91CF911F910895C11580E419
:101C7000D80708F053C0C11590E2D90708F0B7C0E3
:101C8000C11581E0D80730F38D2F0E94B90F182FAE
:101C9000CE0199270E94170FC12FD0E0DC2FCC274F
:101CA000CC27DF71C82BD92BDCCFC03892E5D90700
:101CB000A8F4C03682E5D80708F063C0C03492E5C6
:101CC000D90708F049C0C03282E5D80788F1CF7142
:101CD000D0E0DC2FCC27C16FD06AC3CFC03C92E5E7
:101CE000D90780F48C2F8F71C03AD24508F45EC0BA
:101CF0000E94B90FC82FD0E0DC2FCC27CC27DF7192
:101D0000D062AFCFC03E82E5D80708F0A3CFDC2F6A
:101D1000CC27CC27DF71C06FD06AA3CFCE01992723
:101D20000E94170FCC27DF70C82BD92BD06A99CF10
:101D30002C2F2695269590E2299F900111248C2F17
:101D40008370C1E0D0E002C0CC0FDD1F8A95E2F7BE
:101D5000C22BD32BDD6885CF2C2F26952695277097
:101D600080E2289F900111248C2F8370C1E0D0E085
:101D700002C0CC0FDD1F8A95E2F7C22BD32BDC68A3
:101D800070CF2C2F26952695277090E2299F9001E1
:101D900011248C2F8370C1E0D0E002C0CC0FDD1F76
:101DA0008A95E2F7C22BD32BDA685BCFC82FD0E03D
:101DB000DC2FCC27C46FD06A54CF8C2F8F710E9438
:101DC000B90F55E0D695C7955A95E1F7CF70D0E099
:101DD000DC2FCC27282F30E084FF05C044E0220F01
:101DE000331F4A95E1F7C22BD32BD0693ACF8D2F01
:101DF0008F710E94B90F182FCE0199270E94170FDB
:101E0000C12FD0E0DC2FCC27CC27DF71C82BD92BFA
:101E100077CF672B21F440E00E943003089590E0D3
:101E200080E008950E94090F0E940B0E08958238E9
:101E30009105B9F1B0F48133910509F47DC048F4FE
:101E40008932910509F46DC08A32910509F47BC08D
:101E500008958533910509F45FC08933910509F12F
:101E60000895833E9105D9F138F4803E910529F11A
:101E7000823E910579F10895863E9105D9F1873E1C
:101E8000910509F43EC0843E910541F52091DF01A2
:101E900021FF24C08091DE0184FD19C087EE90E00F
:101EA00008952091DE01237009F05AC02091DF01CE
:101EB00023FF14C089E290E008952091DE0120FD07
:101EC00038C03091DF0130FF09C024FF43C090E0EB
:101ED00080E008952091DE0122FDF7CF0895209142
:101EE000DE0122FD3AC03091DF0130FD39C024FF10
:101EF000F5CFEDCF2091DE0123FFF0CF24FDE7CF1A
:101F0000CDCF2091DE0123FD2EC03091DF0131FFC6
:101F1000EECF84EE90E008952091DE0125FFDECF24
:101F2000C9CF2091DE0125FD21C02091DF0123FFD3
:101F3000D5CF89E390E0D2CF2091DE0126FFCECF2E
:101F40008AE290E008952091DE0126FFC7CF81E369
:101F500090E0089583EE90E0089582EE90E0089579
:101F600080EE90E0089586EE90E0089585E390E09D
:101F700008959091DE0192FF10C041E0282F247156
:101F8000243009F040E031E0282F2871283009F092
:101F900030E0431711F02CE0822793FF10C041E09E
:101FA000282F2471243109F040E031E0282F2871D6
:101FB000283109F030E0431711F02CE082273091EE
:101FC000DF0130FF10C051E0282F2171213009F0CE
:101FD00050E041E0282F2871283009F040E05417E4
:101FE00011F029E0822731FF10C041E0282F217134
:101FF000213109F040E031E0282F2871283109F023
:1020000030E0431711F029E0822794FD877E089580
:1020100080E0089508950E940A10089508950E948E
:102020000E100895E82FF0E0EF51FE4F80810895E3
:1020300008956A98729A08952CB1860F911D30E028
:10204000359527953595279520953095217033271F
:10205000FC01208308950E9419101092E101109252
:10206000E00181E00E945C100E940B100895A1E045
:10207000B0E0EDE3F0E10C94141E198260E0CE01B3
:1020800001960E941C109091E001898121E0981333
:1020900001C020E098138093E00141E061EE71E01F
:1020A00080EE91E00E945D10182F0E940F10812F8A
:1020B0002196E3E00C94301E0895CF92DF92EF92C8
:1020C000FF921F93CF93DF936C017B01122F22238A
:1020D00071F0C42FD0E0AE01BC01C7010E943C1ECC
:1020E000892B71F0AE01B601C7010E94491E812FF4
:1020F000DF91CF911F91FF90EF90DF90CF900895E7
:1021000010E0F5CF0E94C20D08950E94ED140E94C8
:1021100009170E94810D0E9423170E94B50D0E948D
:1021200030170E9435170E9482100E944F170E949C
:10213000940DF7CF90933101809330010895089565
:1021400021E030E001C0220F4A95EAF7662311F042
:10215000822B0895209582230895E0912701F09124
:10216000280109950E9430020E949F100895CF9384
:102170006BEB71E082EC91E00E948714C82F8823FA
:1021800021F082EC91E00E940E149091C30186E050
:10219000E2ECF1E0DF01282F1D922A95E9F79093F8
:1021A000C301ABEBB1E001900D928A95E1F781E0BC
:1021B000C11103C0911101C080E08170CF910895D9
:1021C000ACE0B0E0E6EEF0E10C94151E4F835887CA
:1021D0008B879C87719579876A8786E0FE013796A1
:1021E000DE01119601900D928A95E1F729813A81DD
:1021F0004B815C816D817E8180E090E02C96E2E0F5
:102200000C94311EE0912901F0912A014091C20104
:102210005091C3016091C4017091C5018091C601C4
:102220009091C7010995F42FE52FCB012093C201AE
:102230003093C301F093C401E093C5016093C601DC
:102240009093C701A9016F2F7E2F0E94E010F42FF9
:10225000E52FCB012093C2013093C301F093C40159
:10226000E093C5016093C6019093C701A9016F2F48
:102270007E2F0E941A012093C2013093C301409324
:10228000C4015093C5016093C6017093C7010E94B9
:10229000B710811106C08091C1011092C1018170F7
:1022A000089581E090E0F9CFE0912B01F0912C01AD
:1022B000099508959C01215D31092830310550F4BC
:1022C0004FE2480F8091C3010E94A0108093C30188
:1022D0000E94B7100895ACE0B0E0E1E7F1E10C94A2
:1022E000131E4F8358878B879C87162F072F0E94BA
:1022F000F711811104C0911102C0902F812F89879D
:102300009A8786E0FE013796DE01119601900D92C4
:102310008A95E1F729813A814B815C816D817E81CB
:1023200080E090E02C96E4E00C942F1E2C98089509
:102330002C9A08953E98469898E080E02F9825E0E2
:102340002A95F1F7000026B126FB222720F9880FF5
:10235000822B2F9A25E02A95F1F70000915071F712
:1023600008953E9A27E030E090E02F98AC01022ECD
:1023700002C0559547950A94E2F740FF0EC0469A71
:102380004AE04A95F1F700C02F9A2150310968F7C9
:1023900085E18A95F1F7000008954698F1CFCF9333
:1023A000C82F0E9496118C2F0E94B1110E949A1181
:1023B000C82F85E08A95F1F700000E9498118C2FB4
:1023C000CF910895CF93DF93D82FC62F0E949611F7
:1023D0008D2F80680E94B1118C2F0E94B1110E9434
:1023E0009811DF91CF91089587FD80680895CF936C
:1023F000DF930E94961183E60E94B1110E949A1108
:10240000C82F0E949A11D82F0E9498118C2F0E94D9
:10241000F411C82F8D2F0E94F411982F8C2FDF916B
:10242000CF910895279A3E9A249A6AE58AE30E94FA
:10243000E2112FE78FEA92E0215080409040E1F7CF
:1024400000C000000E94F711089561E08D379105EA
:1024500048F06DE0863D26E0920720F46DE770E0DD
:102460000E94EB1D606189E10E94E211089589E1FB
:102470000E94CF1180712DE7829FC0011124089521
:10248000CF93DF93EB0186319C4711F50E94970BA8
:102490009D81992399F08A7A91E009F490E09093D4
:1024A000C801811109C089E20E946C140E94260CA7
:1024B00080E0DF91CF91089585E3F6CF8091C80148
:1024C000811104C089E20E947414F0CF85E3FBCF30
:1024D00081E0EFCFCF93DF93EC01FB01858188236F
:1024E00009F4D2C09E0130572332310508F0B2C042
:1024F0000E94A50C9093DF018093DE01FE01E15064
:10250000F047E232F10520F4E854F14E0C94FF1D3F
:102510008091DE0181608093DE0193C08091DF01B4
:1025200088608093DF018DC08091DE018260F3CFEF
:102530008091DE018460EFCF8091DE018860EBCF77
:102540008091DF018160EDCF8091DF018260E9CF72
:102550008091DE018061DFCF8091DE018062DBCF80
:102560008091DE018064D7CF0E9429078091DE012F
:102570008068D1CF8091DE018C60CDCF8091DF016A
:102580008360CFCF8091DE018E7FC5CF8091DF0148
:10259000877FC7CF8091DE018D7FBDCF8091DE0127
:1025A0008B7FB9CF8091DE01877FB5CF8091DF012E
:1025B0008E7FB7CF8091DF018D7FB3CF8091DE0119
:1025C0008F7EA9CF8091DE018F7DA5CF8091DE0126
:1025D0008F7BA1CF0E9429078091DE018F779BCF4F
:1025E0008091DE01837F97CF8091DF018C7F99CF2F
:1025F0008091DE0182FB992790F921E0922790FBE0
:1026000082F990FB83F987CF8091DF01982F909515
:1026100091708E7F892B90FB81F983CF9091DE01A1
:10262000892F8F7B96FF806476CF0E942907909137
:10263000DE01892F97FB87F980586DCF81E00E94DA
:102640002B0D8091DE019091DF010E94AA0C0E9467
:10265000290780E0DF91CF91089580E0F0CF90913D
:10266000DE01892F8F7E94FF806155CF9091DE012E
:10267000892F8E7F90FF81604ECF9091DF01892F4F
:10268000877F93FF88604DCF81E0E4CF0F931F9346
:10269000CF93DF93C42FD22FFC0185818823C9F00B
:1026A0004093CB010E9454159093CA018093C901B5
:1026B00080E28C0F883040F4C77081E001C0880F41
:1026C000CA95EAF70E94FE04DF91CF911F910F9106
:1026D00008951091CB01141332C08091C9019091DB
:1026E000CA010E946C15883C910548F5C0E2CD0FE7
:1026F0001D17B9F080E2810F883040F4177081E037
:1027000001C0880F1A95EAF70E940505C83048F401
:1027100081E09D2F977001C0880F9A95EAF70E947B
:10272000FE04802F0E94F504C83070F6D77081E057
:1027300001C0880FDA95EAF70E940505C5CF80E24F
:102740008C0F883008F6C77081E001C0880FCA95E9
:10275000EAF7F2CF0F93DB0188519C478730910550
:10276000A0F5FC01E652F14E0C94FF1D06E221EEAD
:1027700041EE6AE17CE7CD010E94461380E00F91B3
:10278000089507E225EE45EE6BE17CE7F4CF06E223
:1027900021EE40EE68E17CE7EECF07E225EE44EE65
:1027A00069E17CE7E8CF06E221EE42EE6CE17CE7EE
:1027B000E2CF07E225EE46EE6DE17CE7DCCF08E2F2
:1027C00021E045EE6EE17CE7D6CF15968C9188230B
:1027D00019F01092CB01D3CF81E0D1CF9093CD01EE
:1027E0008093CC010895E091CC01F091CD01309718
:1027F00029F00190F081E02D0995089580E0089579
:102800000E94F3130895E091CC01F091CD0130972F
:1028100021F00280F381E02D09950895E091CC012B
:10282000F091CD01309739F022E0DC012C93068045
:10283000F781E02D0995089540910A0150910B010F
:102840009A012E5F3F4F485F5F4F80E024173507A6
:1028500009F40895F90191919F019923B9F38F5FCC
:10286000F5CF882371F020910A0130910B01F90115
:102870003296285F3F4F9191981729F0E217F3079E
:10288000D1F780E0089581E008959C01FC01329623
:102890009FEF80E04191461751F09F3F19F441119D
:1028A00001C0982F8F5F8630A9F79F3F09F40895E4
:1028B000290F311D97FD3A95F90162830895FC01B6
:1028C000329608962191261303C0DF0111971C92BE
:1028D000E817F907B9F70895682F80910A019091D8
:1028E0000B010E9445140895682F80910A01909170
:1028F0000B010E945F140895E0910A01F0910B0111
:10290000329686E0DF011D928A95E9F70895DC0191
:10291000FB0111969C9111978181981322C0129608
:102920008C911297882319F0928189131AC01396FB
:102930008C911397882319F09381891312C01596EF
:102940008C911597882319F0958189130AC01496E4
:102950009C91992321F081E02481291303C080E018
:1029600001C081E08170089508950E94B414089513
:10297000811106C081E08093CE010E94B5140895B4
:1029800082E0F9CF83E08093CE010E94B5140895D0
:102990000E94B814089581E08093CE010E94B5147E
:1029A00008950E94CB140895089508950E94D514A7
:1029B0000895089508950E94D41408950E94D9148A
:1029C0000E9437100E94DA1480E00E94121091E0F9
:1029D000811101C090E0892F089585B7806885BF77
:1029E00085B7806885BF08951F921FB61F92112476
:1029F0008F939F93AF93BF938091CF01811113C0A9
:102A00008091E2019091E301A091E401B091E50190
:102A10004196A11DB11D8093E2019093E301A09323
:102A2000E401B093E501BF91AF919F918F911F9009
:102A30001FBE1F9018958091EA01843031F10E94E9
:102A400008041092CF0188E190E020E40FB6F894DA
:102A5000A895809360000FBE2093600083B7817FAC
:102A6000846083BF83B7816083BF7894889583B780
:102A70008E7F83BF0FB6F894A8958091600088611F
:102A800080936000109260000FBE08950E94290795
:102A90000E940F04089582E084BD93E095BD9AEFF3
:102AA00097BD80936E0008952FB7F8948091E2014E
:102AB0009091E301A091E401B091E5012FBF089549
:102AC0002FB7F8946091E2017091E3018091E401E5
:102AD0009091E5012FBF08959C014FB7F894809124
:102AE000E2019091E301A091E401B091E5014FBFB3
:102AF000821B930B089578941F921FB61F92112486
:102B00008F939F93AF93BF938091E2019091E301E4
:102B1000A091E401B091E5010196A11DB11D809342
:102B2000E2019093E301A093E401B093E501BF912A
:102B3000AF919F918F911F901FBE1F90189581E0BC
:102B40008093E00080E28093D8001092C9008FE16A
:102B50009EE40197F1F700C0000087E090EBDC01F4
:102B60008093F3019093F401A093F501B093F601E3
:102B700088E19CE00FB6F894A895809360000FBEA2
:102B800090936000FFCF88E19CE00FB6F894A89581
:102B9000809360000FBE90936000FFCF8091D801BA
:102BA0000895089508959B01BA019091EA01943027
:102BB000E9F48F708093E9009FEF8091E8009150D5
:102BC00085FD06C085ED8A95F1F700009111F5CFDE
:102BD0008091E80085FF0AC050E040E0C9010E94F2
:102BE000C6178091E8008E778093E800089546E04C
:102BF00050E0BC0182E00E94D3150895CF93DF938B
:102C0000EC0148E050E0BC0181E00E94D31588E06F
:102C1000FE01A0EDB1E001900D928A95E1F7DF9100
:102C2000CF9108958091E901811109C00E94561940
:102C30000E94B3198091E20084608093E2000895BD
:102C40001092E90108950E94CB1408956091E60165
:102C500081E0611101C080E00E94C214089590914A
:102C6000EA0181E0943009F080E06091E6010E9481
:102C7000C814089542E061EC81E00E94D21842E25B
:102C800061EC82E00E94D2189091EA0181E09430D8
:102C900009F080E06091E6010E94B81408958091E7
:102CA000EC01833009F461C030F48130D1F182301D
:102CB00009F49EC008958A3009F48AC08B3009F463
:102CC0006FC0893009F050C08091EB01813209F06A
:102CD0004BC08091EF019091F001029708F044C041
:102CE0008091E800877F8093E8008091E80082FF70
:102CF00037C09091F3008091F200029731F48091F7
:102D0000F100813011F0863021F48091F100809340
:102D1000D8018091E8008B778093E8000E94061923
:102D200023C08091EB01813AF9F48091E800877F1C
:102D30008093E8008091EF019091F001892B61F47C
:102D400068E080ED91E070E00E9415188091E80045
:102D50008B778093E800089560E090E080E0F3CF07
:102D60008091EA018111C1CF08958091EB01813AF0
:102D7000D9F78091EF019091F001892BA9F780910B
:102D8000E800877F8093E8008091E80080FFFCCF17
:102D9000809116018093F1008091E8008E77BCCF7E
:102DA0008091EB01813201F78091EF019091F00168
:102DB000892BD1F68091E800877F8093E8000E94FC
:102DC00006198091ED01809316010E94290708954C
:102DD0008091EB01813241F68091E800877F8093FA
:102DE000E8000E9406198091EE018093D9010895B0
:102DF0008091EB01813A09F0B7CF8091E800877F9D
:102E00008093E8008091E80080FFFCCF8091D90199
:102E1000C1CF84B7877F84BF0FB6F894A8958091FF
:102E20006000886180936000109260000FBE80E8AF
:102E300090E00FB6F89480936100909361000FBE0C
:102E40000E94D11408950E9456190E94B319E2EE0F
:102E5000F0E080818460808378940E94321C089521
:102E60008CE091E00E94EE1308958091EA01853094
:102E700031F48091EA01853019F00E9446150895D9
:102E80000E941B150E94DE14882399F38091E801AB
:102E9000882379F30E94B0170E942907EACF08958A
:102EA0009A014091F1015091F2010E945817089542
:102EB000492F55274330510519F168F44130510528
:102EC00009F444C04230510509F445C090E080E067
:102ED00050E040E025C04132510549F142325105F0
:102EE000A9F784E490E04CE751E061157105C1F069
:102EF00089E490E043E351E06130710589F0E6CF69
:102F000099278130910581F0009729F00297F1F619
:102F1000EEEAF0E002C0E2EEF0E0849190E0AF0172
:102F2000F901518340830895EEECF0E0F6CF89E09B
:102F300090E048EF50E06115710591F389E090E071
:102F400041E151E06130710559F3C0CF82E190E079
:102F500041E251E0E5CF8BE390E046EE50E0E0CF78
:102F600080E189BD82E189BD09B400FEFDCF809179
:102F7000D8008F7D8093D8008091E000826080939C
:102F8000E0008091E00081FDFCCF0895AF92BF92F8
:102F9000CF92DF92FF920F931F93CF93DF936C0139
:102FA000EB018A010E942519F82E811123C0011519
:102FB000110539F0F80180819181C81BD90BC80E29
:102FC000D91EB12CA12C2097A9F08091E80085FD95
:102FD00022C08091E8008E778093E80001151105EA
:102FE000A1F0F80180819181A80EB91EB182A08262
:102FF00085E0F82E8F2DDF91CF911F910F91FF90DB
:10300000DF90CF90BF90AF9008950E94251988233C
:10301000D1F2F82EEFCFF60181916F018093F1008C
:103020002197FFEFAF1ABF0ACECFFC018091F101CB
:103030009091F20186179707A0F06115710529F4A8
:103040009091E8009E779093E80090E061157105FB
:1030500051F4911108C08091E80082FF34C080E0F3
:103060000895BC01F2CF8091EA018823C1F1853037
:10307000C1F18091E80083FD30C08091E80082FDBD
:10308000EACF8091E80080FFE1CF8091F3002091AA
:10309000F200382F6115710519F02830310558F00C
:1030A00091E02830310509F090E02091E8002E777A
:1030B0002093E800CBCF81918093F100615071099A
:1030C0002F5F3F4FE7CF8091EA01882341F08530A1
:1030D00041F08091E80083FFBECF81E0089582E057
:1030E000089583E00895FC018091F1019091F2012F
:1030F00086179707A0F06115710529F48091E80003
:103100008E778093E80090E06115710551F491117C
:1031100008C08091E80082FF35C080E00895BC01BE
:10312000F2CF8091EA018823C9F18530C9F18091FD
:10313000E80083FD31C08091E80082FDEACF8091F4
:10314000E80080FFE1CF8091F3002091F200382F5A
:103150006115710519F02830310558F091E02830DB
:10316000310509F090E08091E8008E778093E800C7
:10317000CBCF84918093F1003196615071092F5F1C
:103180003F4FE6CF8091EA01882341F0853041F03E
:103190008091E80083FFBDCF81E0089582E008952B
:1031A00083E00895982F973028F08F708093E9007E
:1031B00081E008959093E900242F762F50E098172E
:1031C00031F07091EC002091ED005091F00021FD64
:1031D00002C09F5FE8CF3091EB003E7F3093EB0061
:1031E0003091ED003D7F3093ED003091EB00316088
:1031F0003093EB007093EC002093ED005093F000BF
:103200002091EE0027FDE5CF80E008958091EB014D
:1032100087FF13C08091E80082FF06C08091E8001C
:103220008B778093E80004C08091EA018111F2CF8E
:1032300008958091EA018823D9F38091E80080FF06
:10324000F8CF8091E8008E77ECCF2091E4003091A8
:10325000E50095E6A9012091EC00822F817020FF06
:1032600006C08091E80080FF06C080E008952091AC
:10327000E80022FD1AC08091EA01882389F0853098
:1032800089F08091EB0085FD0FC02091E400309122
:10329000E50042175307F9F29150E1F684E00895F2
:1032A00082E0089583E0089581E008950E94C519A1
:1032B0000E94CD19E0EEF0E0808181608083E8ED2E
:1032C000F0E080818F77808319BCA7EDB0E08C910E
:1032D0008E7F8C9380818F7E80831092E901089588
:1032E0000F931F93CF93DF930E94C5190E94CD19AE
:1032F000C8EDD0E088818F77888388818068888353
:1033000088818F7D888319BC1092EA011092E601B2
:103310001092E8011092E70100EE10E0F8018081C0
:103320008B7F808388818160888342E060E080E0D9
:103330000E94D218E1EEF0E080818E7F8083E2EE81
:10334000F0E0808181608083808188608083F801E3
:1033500080818E7F8083888180618883DF91CF9197
:103360001F910F910895E8EDF0E080818F7E8083BA
:10337000E7EDF0E080818160808384E082BF81E0BE
:103380008093E9010E9470190895E8EDF0E08081D2
:103390008E7F80831092E20008951092DA001092DE
:1033A000E10008951F920F920FB60F9211242F93F0
:1033B0003F934F935F936F937F938F939F93AF93BD
:1033C000BF93EF93FF938091E10082FF0BC0809148
:1033D000E20082FF07C08091E1008B7F8093E100D3
:1033E0000E94311C8091DA0080FF19C08091D800C2
:1033F00080FF15C08091DA008E7F8093DA00809183
:10340000D90080FF96C080E189BD82E189BD09B401
:1034100000FEFDCF81E08093EA010E9412168091A8
:10342000E10080FF19C08091E20080FF15C080910B
:10343000E2008E7F8093E2008091E20080618093C1
:10344000E2008091D80080628093D80019BC85E0AA
:103450008093EA010E9426168091E10084FF2BC030
:103460008091E20084FF27C080E189BD82E189BDAF
:1034700089B5982F917080FFFBCF8091D8008F7D08
:103480008093D8008091E1008F7E8093E10080914D
:10349000E2008F7E8093E2008091E2008160809361
:1034A000E2008091E601882309F449C084E080931A
:1034B000EA010E942F168091E10083FF29C08091CC
:1034C000E20083FF25C08091E100877F8093E100C7
:1034D00082E08093EA011092E6018091E1008E7F04
:1034E0008093E1008091E2008E7F8093E2008091E2
:1034F000E20080618093E20042E060E080E00E94B0
:10350000D2188091F00088608093F0000E9423160A
:10351000FF91EF91BF91AF919F918F917F916F91AB
:103520005F914F913F912F910F900FBE0F901F9081
:10353000189519BC1092EA010E94201670CF809154
:10354000E30087FD93E09093EA01B3CF1F920F92BF
:103550000FB60F9211242F933F934F935F936F9366
:103560007F938F939F93AF93BF93CF93DF93EF930B
:10357000FF93D091E900DF708091EC00C82FC170FB
:1035800080FDC0E81092E9008091F000877F809371
:10359000F00078940E94EA1A1092E9008091F000FD
:1035A00088608093F000CD2BCF70C093E900FF912D
:1035B000EF91DF91CF91BF91AF919F918F917F91CB
:1035C0006F915F914F913F912F910F900FBE0F9090
:1035D0001F901895AAE2B0E0E0EFFAE10C94141EF7
:1035E0008BEE91E02091F100FC012193CF01F1E0FD
:1035F000833F9F07B9F70E944F168091E80083FF31
:103600001EC18091EB019091EC019A3008F017C136
:10361000E92FF0E0EF51F14E0C94FF1D803899F046
:10362000823809F00CC18091EF018F70873008F06B
:1036300006C18093E9008091EB0085FB882780F923
:103640001092E90006C08091E7019091E801911184
:1036500082609091E800977F9093E8008093F1005A
:103660001092F1008091E8008E77E5C0882309F47C
:10367000D3C0823009F0E3C08091ED018111D6C042
:103680008091EF018F702FEF280F263008F0D7C000
:103690008093E9002091EB0020FFC8C0933031F403
:1036A0008091EB0080628093EB00C0C09091EB00B2
:1036B00090619093EB0021E030E001C0220F8A95E9
:1036C000EAF72093EA001092EA008091EB0088600C
:1036D000EACF8111B4C01091ED011F778091E30012
:1036E0008078812B8093E3008091E800877F80932E
:1036F000E8000E9406198091E80080FFFCCF8091CD
:10370000E30080688093E30082E0111183E08093FE
:10371000EA0195C08058823008F091C08091ED0197
:103720009091EE018C3D23E09207A1F583E08A831E
:103730008AE289834FB7F894DE01139620E03EE0D9
:1037400051E2E32FF0E050935700E49120FF03C0D3
:10375000E295EF703F5FEF708E2F90E0EA30C0F09F
:10376000C7968D939D932F5F243159F74FBF80915A
:10377000E800877F8093E8006AE270E0CE0101965E
:103780000E9415188091E8008B778093E80057C05D
:10379000C096E7CF6091EF017091F001AE014F5FED
:1037A0005F4F0E945017BC01892B09F448C09091CB
:1037B000E800977F9093E80089819A810E947318AE
:1037C000E1CF8038E1F58091E800877F8093E800C1
:1037D0008091E6018093F10045CF811130C0909136
:1037E000ED01923060F58091E800877F8093E800DA
:1037F0009093E6010E9406198091E601882311F05A
:1038000084E005C08091E30087FDFACF81E08093DA
:10381000EA010E943A1613C08091ED01813079F4DB
:1038200081E0933009F080E08093E8011092E90094
:103830008091E800877F8093E8000E9406198091BC
:10384000E80083FF0AC08091E800877F8093E8004A
:103850008091EB0080628093EB00AA96E3E00C94E9
:10386000301E0895CF938091EA018823A1F0C09182
:10387000E900CF709091EC00892F817090FD80E875
:10388000C82B1092E9008091E80083FD0E94EA1A9B
:10389000CF70C093E900CF9108955058BB27AA2755
:1038A0000E94651C0C94441D0E94361D38F00E9435
:1038B0003D1D20F039F49F3F19F426F40C94331D7C
:1038C0000EF4E095E7FB0C942D1DE92F0E94551D89
:1038D00058F3BA17620773078407950720F079F445
:1038E000A6F50C94771D0EF4E0950B2EBA2FA02DA3
:1038F0000B01B90190010C01CA01A0011124FF279D
:10390000591B99F0593F50F4503E68F11A16F04097
:10391000A22F232F342F4427585FF3CF4695379596
:103920002795A795F0405395C9F77EF41F16BA0B5B
:10393000620B730B840BBAF09150A1F0FF0FBB1F09
:10394000661F771F881FC2F70EC0BA0F621F731F52
:10395000841F48F4879577956795B795F7959E3FAF
:1039600008F0B0CF9395880F08F09927EE0F979540
:10397000879508950E94C11C6894B1110C94781D1C
:1039800008950E945D1D88F09F5798F0B92F9927E0
:10399000B751B0F0E1F0660F771F881F991F1AF03A
:1039A000BA95C9F714C0B13091F00E94771DB1E00B
:1039B00008950C94771D672F782F8827B85F39F00A
:1039C000B93FCCF3869577956795B395D9F73EF4D3
:1039D00090958095709561957F4F8F4F9F4F08957B
:1039E000E89409C097FB3EF4909580957095619599
:1039F0007F4F8F4F9F4F9923A9F0F92F96E9BB274F
:103A00009395F695879577956795B795F111F8CFCA
:103A1000FAF4BB0F11F460FF1BC06F5F7F4F8F4F35
:103A20009F4F16C0882311F096E911C0772321F02B
:103A30009EE8872F762F05C0662371F096E8862FC3
:103A400070E060E02AF09A95660F771F881FDAF71A
:103A5000880F9695879597F9089597F99F6780E85D
:103A600070E060E008959FEF80EC089500240A94D0
:103A70001616170618060906089500240A94121649
:103A80001306140605060895092E0394000C11F47C
:103A9000882352F0BB0F40F4BF2B11F460FF04C029
:103AA0006F5F7F4F8F4F9F4F089557FD9058440F82
:103AB000551F59F05F3F71F04795880F97FB991F8D
:103AC00061F09F3F79F0879508951216130614064A
:103AD000551FF2CF4695F1DF08C0161617061806D7
:103AE000991FF1CF86957105610508940895E894B2
:103AF000BB2766277727CB0197F908950E94911D70
:103B00000C94441D0E94361D38F00E943D1D20F08B
:103B1000952311F00C942D1D0C94331D11240C943D
:103B2000781D0E94551D70F3959FC1F3950F50E0CD
:103B3000551F629FF001729FBB27F00DB11D639F5F
:103B4000AA27F00DB11DAA1F649F6627B00DA11D05
:103B5000661F829F2227B00DA11D621F739FB00DAB
:103B6000A11D621F839FA00D611D221F749F33271B
:103B7000A00D611D231F849F600D211D822F762FB4
:103B80006A2F11249F5750409AF0F1F088234AF091
:103B9000EE0FFF1FBB1F661F771F881F91505040FD
:103BA000A9F79E3F510580F00C942D1D0C94781DB3
:103BB0005F3FE4F3983ED4F3869577956795B79584
:103BC000F795E7959F5FC1F7FE2B880F911D96959E
:103BD000879597F90895AA1BBB1B51E107C0AA1F3F
:103BE000BB1FA617B70710F0A61BB70B881F991F9E
:103BF0005A95A9F780959095BC01CD010895EE0FD7
:103C0000FF1F0590F491E02D09942F923F924F925F
:103C10005F926F927F928F929F92AF92BF92CF925C
:103C2000DF92EF92FF920F931F93CF93DF93CDB765
:103C3000DEB7CA1BDB0B0FB6F894DEBF0FBECDBFDD
:103C400009942A88398848885F846E847D848C84AE
:103C50009B84AA84B984C884DF80EE80FD800C81B7
:103C60001B81AA81B981CE0FD11D0FB6F894DEBF9A
:103C70000FBECDBFED010895FB01DC0104C08D91A5
:103C80000190801921F441505040C8F7881B990BCE
:103C90000895FB01DC0102C001900D92415050409B
:103CA000D8F70895F999FECF92BD81BDF89A99276A
:103CB00080B50895A6E1B0E044E050E00C949C1E6D
:103CC000A8E1B0E042E050E00C949C1EDC01A40F9F
:103CD000B51F4150504048F0CB01840F951F2E91E5
:103CE0000E94771E41505040D0F70895262FF99931
:103CF000FECF92BD81BDF89A019700B4021639F04B
:103D00001FBA20BD0FB6F894FA9AF99A0FBE08951B
:103D10000396272F0E94771E0E94761E252F0E9451
:103D2000771E242F0C94771E0196272F0E94771E52
:103D30000C94761EDC01CB01FC01F999FECF06C084
:103D4000F2BDE1BDF89A319600B40D924150504059
:103D5000B8F70895F894FFCF4D054D059D059D05D5
:103D60007C0502067C057C05070678068706870623
:103D7000C2123613CA1294129812CE129C12D21288
:103D8000DE12A8122F13AC12E212B012E6120E13BA
:103D9000B412EA121513BA12F012F812A012D612C7
:103DA000A412DA12BE12F41204131E132D138E1273
:103DB000C6123D13C713CD13B613C113D313D913B2
:103DC000DF130E1B361B1F1C361B1F1C691B8A1B97
:063DD0001F1CE11BED1BAE
:103DD60058028403B00440066009A101CE15FE1501
:103DE600D215F715D11501353667919293949596AC
:103DF60097C6F1F3F5F6F712126B1125123712007A
:00000001FF
